{
  "contractName": "PredMarketFactory",
  "abi": [
    {
      "inputs": [
        {
          "internalType": "address",
          "name": "_ownerAddress",
          "type": "address"
        },
        {
          "internalType": "address",
          "name": "_adminAddress",
          "type": "address"
        },
        {
          "internalType": "address",
          "name": "_operatorAddress",
          "type": "address"
        }
      ],
      "stateMutability": "nonpayable",
      "type": "constructor"
    },
    {
      "anonymous": false,
      "inputs": [
        {
          "indexed": true,
          "internalType": "address",
          "name": "tokenPred",
          "type": "address"
        },
        {
          "indexed": true,
          "internalType": "address",
          "name": "tokenStaked",
          "type": "address"
        },
        {
          "indexed": false,
          "internalType": "address",
          "name": "market",
          "type": "address"
        }
      ],
      "name": "MarketCreated",
      "type": "event"
    },
    {
      "anonymous": false,
      "inputs": [
        {
          "indexed": false,
          "internalType": "address",
          "name": "oldAdmin",
          "type": "address"
        },
        {
          "indexed": false,
          "internalType": "address",
          "name": "newAdmin",
          "type": "address"
        }
      ],
      "name": "SetAdmin",
      "type": "event"
    },
    {
      "anonymous": false,
      "inputs": [
        {
          "indexed": false,
          "internalType": "address",
          "name": "oldOperator",
          "type": "address"
        },
        {
          "indexed": false,
          "internalType": "address",
          "name": "newOperator",
          "type": "address"
        }
      ],
      "name": "SetOperator",
      "type": "event"
    },
    {
      "anonymous": false,
      "inputs": [
        {
          "indexed": false,
          "internalType": "address",
          "name": "oldOwner",
          "type": "address"
        },
        {
          "indexed": false,
          "internalType": "address",
          "name": "newOwner",
          "type": "address"
        }
      ],
      "name": "SetOwner",
      "type": "event"
    },
    {
      "inputs": [],
      "name": "admin",
      "outputs": [
        {
          "internalType": "address",
          "name": "",
          "type": "address"
        }
      ],
      "stateMutability": "view",
      "type": "function",
      "constant": true
    },
    {
      "inputs": [
        {
          "internalType": "address",
          "name": "",
          "type": "address"
        },
        {
          "internalType": "address",
          "name": "",
          "type": "address"
        }
      ],
      "name": "markets",
      "outputs": [
        {
          "internalType": "address",
          "name": "",
          "type": "address"
        }
      ],
      "stateMutability": "view",
      "type": "function",
      "constant": true
    },
    {
      "inputs": [],
      "name": "operator",
      "outputs": [
        {
          "internalType": "address",
          "name": "",
          "type": "address"
        }
      ],
      "stateMutability": "view",
      "type": "function",
      "constant": true
    },
    {
      "inputs": [],
      "name": "owner",
      "outputs": [
        {
          "internalType": "address",
          "name": "",
          "type": "address"
        }
      ],
      "stateMutability": "view",
      "type": "function",
      "constant": true
    },
    {
      "inputs": [
        {
          "internalType": "string",
          "name": "_name",
          "type": "string"
        },
        {
          "internalType": "address",
          "name": "_tokenPred",
          "type": "address"
        },
        {
          "internalType": "address",
          "name": "_tokenStaked",
          "type": "address"
        },
        {
          "internalType": "address",
          "name": "_oracle",
          "type": "address"
        },
        {
          "internalType": "address[]",
          "name": "_ownerAdminOperator",
          "type": "address[]"
        },
        {
          "internalType": "uint256",
          "name": "_lockInterval",
          "type": "uint256"
        },
        {
          "internalType": "uint256",
          "name": "_closeInterval",
          "type": "uint256"
        },
        {
          "internalType": "uint256",
          "name": "_buffer",
          "type": "uint256"
        },
        {
          "internalType": "uint256",
          "name": "_minBetAmount",
          "type": "uint256"
        },
        {
          "internalType": "uint256",
          "name": "_oracleUpdateAllowance",
          "type": "uint256"
        }
      ],
      "name": "createMarket",
      "outputs": [],
      "stateMutability": "nonpayable",
      "type": "function"
    },
    {
      "inputs": [
        {
          "internalType": "address",
          "name": "_owner",
          "type": "address"
        }
      ],
      "name": "changeOwner",
      "outputs": [],
      "stateMutability": "nonpayable",
      "type": "function"
    },
    {
      "inputs": [
        {
          "internalType": "address",
          "name": "_admin",
          "type": "address"
        }
      ],
      "name": "changeAdmin",
      "outputs": [],
      "stateMutability": "nonpayable",
      "type": "function"
    },
    {
      "inputs": [
        {
          "internalType": "address",
          "name": "_operator",
          "type": "address"
        }
      ],
      "name": "changeOperator",
      "outputs": [],
      "stateMutability": "nonpayable",
      "type": "function"
    }
  ],
  "bytecode": "0x608060405234801561001057600080fd5b50604051613b0e380380613b0e83398101604081905261002f9161014b565b600080546001600160a01b03199081166001600160a01b03868116918217845560018054841687831617905560028054909316908516179091556040805192835260208301919091527fcbf985117192c8f614a58aaf97226bb80a754772f5f6edf06f87c675f2e6c663910160405180910390a160408051600081526001600160a01b03841660208201527f848ac24ab84501710d6631faab117b66b79aba7ec6f7778cf3bcff428c1a4efc910160405180910390a160408051600081526001600160a01b03831660208201527f2709918445f306d3e94d280907c62c5d2525ac3192d2e544774c7f181d65af3e910160405180910390a150505061018d565b80516001600160a01b038116811461014657600080fd5b919050565b60008060006060848603121561015f578283fd5b6101688461012f565b92506101766020850161012f565b91506101846040850161012f565b90509250925092565b6139728061019c6000396000f3fe60806040523480156200001157600080fd5b5060043610620000945760003560e01c80638da5cb5b11620000635780638da5cb5b14620001305780638f2839701462000144578063a6f9dae1146200015b578063f851a44014620001725762000094565b806306394c9b14620000995780634b5d120e14620000b2578063570ca73514620000c9578063847d471514620000f9575b600080fd5b620000b0620000aa366004620007e0565b62000186565b005b620000b0620000c33660046200083b565b62000277565b600254620000dd906001600160a01b031681565b6040516001600160a01b03909116815260200160405180910390f35b620000dd6200010a36600462000804565b60036020908152600092835260408084209091529082529020546001600160a01b031681565b600054620000dd906001600160a01b031681565b620000b062000155366004620007e0565b620003b7565b620000b06200016c366004620007e0565b62000495565b600154620000dd906001600160a01b031681565b6200019062000577565b6001600160a01b038116620001c25760405162461bcd60e51b8152600401620001b99062000a23565b60405180910390fd5b6002546001600160a01b0382811691161415620002155760405162461bcd60e51b815260206004820152601060248201526f20b63932b0b23c9037b832b930ba37b960811b6044820152606401620001b9565b600280546001600160a01b038381166001600160a01b031983168117909355604080519190921680825260208201939093527f2709918445f306d3e94d280907c62c5d2525ac3192d2e544774c7f181d65af3e91015b60405180910390a15050565b62000281620005eb565b6001600160a01b0389811660009081526003602090815260408083208c851684529091529020541615620002eb5760405162461bcd60e51b815260206004820152601060248201526f105b1c9958591e4819195c1b1bde595960821b6044820152606401620001b9565b60008a8a8a8a8a8a8a8a8a8a6040516200030590620006af565b6200031a9a999897969594939291906200094e565b604051809103906000f08015801562000337573d6000803e3d6000fd5b506001600160a01b038b811660008181526003602090815260408083208f86168085529083529281902080546001600160a01b0319169587169586179055519384529394509290917fe63e6130091e2155004c4b5ac35e8fb9be704d6637ff3068a8f710ba36c9f41a910160405180910390a35050505050505050505050565b620003c16200065d565b6001600160a01b038116620003ea5760405162461bcd60e51b8152600401620001b99062000a23565b6001546001600160a01b03828116911614156200043a5760405162461bcd60e51b815260206004820152600d60248201526c20b63932b0b23c9030b236b4b760991b6044820152606401620001b9565b600180546001600160a01b038381166001600160a01b031983161792839055604080519282168084529390911660208301527f848ac24ab84501710d6631faab117b66b79aba7ec6f7778cf3bcff428c1a4efc91016200026b565b6200049f6200065d565b6001600160a01b038116620004c85760405162461bcd60e51b8152600401620001b99062000a23565b6000546001600160a01b0382811691161415620005185760405162461bcd60e51b815260206004820152600d60248201526c20b63932b0b23c9037bbb732b960991b6044820152606401620001b9565b600080546001600160a01b0319166001600160a01b038381169190911791829055604080513381529290911660208301527fcbf985117192c8f614a58aaf97226bb80a754772f5f6edf06f87c675f2e6c663910160405180910390a150565b6000546001600160a01b03163314806200059b57506001546001600160a01b031633145b620005e95760405162461bcd60e51b815260206004820152601c60248201527f4f6e6c79206f776e6572206f722061646d696e2066756e6374696f6e000000006044820152606401620001b9565b565b6001546001600160a01b03163314806200060f57506002546001600160a01b031633145b620005e95760405162461bcd60e51b815260206004820152601f60248201527f4f6e6c792061646d696e206f72206f70657261746f722066756e6374696f6e006044820152606401620001b9565b6000546001600160a01b03163314620005e95760405162461bcd60e51b815260206004820152601360248201527227b7363c9037bbb732b910333ab731ba34b7b760691b6044820152606401620001b9565b612ea98062000a9483390190565b80356001600160a01b0381168114620006d557600080fd5b919050565b600082601f830112620006eb578081fd5b8135602067ffffffffffffffff8211156200070a576200070a62000a7d565b8082026200071a82820162000a49565b83815282810190868401838801850189101562000735578687fd5b8693505b8584101562000762576200074d81620006bd565b83526001939093019291840191840162000739565b50979650505050505050565b600082601f8301126200077f578081fd5b813567ffffffffffffffff8111156200079c576200079c62000a7d565b620007b1601f8201601f191660200162000a49565b818152846020838601011115620007c6578283fd5b816020850160208301379081016020019190915292915050565b600060208284031215620007f2578081fd5b620007fd82620006bd565b9392505050565b6000806040838503121562000817578081fd5b6200082283620006bd565b91506200083260208401620006bd565b90509250929050565b6000806000806000806000806000806101408b8d0312156200085b578586fd5b8a3567ffffffffffffffff8082111562000873578788fd5b620008818e838f016200076e565b9b506200089160208e01620006bd565b9a50620008a160408e01620006bd565b9950620008b160608e01620006bd565b985060808d0135915080821115620008c7578788fd5b50620008d68d828e01620006da565b9a9d999c50979a96999860a0880135985060c08801359760e0810135975061010081013596506101200135945092505050565b6000815180845260208085019450808401835b83811015620009435781516001600160a01b0316875295820195908201906001016200091c565b509495945050505050565b60006101408083528c5180828501528291505b8082101562000985576020828f010151610160838601015260208201915062000961565b8082111562000998578261016082860101525b601f01601f191683019050610160620009bc602085018e6001600160a01b03169052565b6001600160a01b038c1660408501526001600160a01b038b16606085015280848303016080850152620009f28183018b62000909565b60a085019990995250505060c081019490945260e08401929092526101008301526101209091015295945050505050565b6020808252600c908201526b5a65726f206164647265737360a01b604082015260600190565b604051601f8201601f1916810167ffffffffffffffff8111828210171562000a755762000a7562000a7d565b604052919050565b634e487b7160e01b600052604160045260246000fdfe6080604052605a600e55600a600f556012805461ffff191690553480156200002657600080fd5b5060405162002ea938038062002ea983398101604081905262000049916200039a565b6000805460ff191690558951620000689060139060208d0190620001b3565b50601480546001600160a01b03808c166001600160a01b031992831617909255601580548b8416908316179055600c8054928a169290911691909117905585518690600090620000c857634e487b7160e01b600052603260045260246000fd5b6020026020010151600860006101000a8154816001600160a01b0302191690836001600160a01b03160217905550856001815181106200011857634e487b7160e01b600052603260045260246000fd5b6020026020010151600960006101000a8154816001600160a01b0302191690836001600160a01b03160217905550856002815181106200016857634e487b7160e01b600052603260045260246000fd5b6020908102919091010151600a80546001600160a01b0319166001600160a01b0390921691909117905560059490945560069290925560075560105560115550620004f19350505050565b828054620001c1906200049e565b90600052602060002090601f016020900481019282620001e5576000855562000230565b82601f106200020057805160ff191683800117855562000230565b8280016001018555821562000230579182015b828111156200023057825182559160200191906001019062000213565b506200023e92915062000242565b5090565b5b808211156200023e576000815560010162000243565b80516001600160a01b03811681146200027157600080fd5b919050565b600082601f83011262000287578081fd5b815160206001600160401b03821115620002a557620002a5620004db565b808202620002b58282016200046b565b838152828101908684018388018501891015620002d0578687fd5b8693505b85841015620002fd57620002e88162000259565b835260019390930192918401918401620002d4565b50979650505050505050565b600082601f8301126200031a578081fd5b81516001600160401b03811115620003365762000336620004db565b60206200034c601f8301601f191682016200046b565b828152858284870101111562000360578384fd5b835b838110156200037f57858101830151828201840152820162000362565b838111156200039057848385840101525b5095945050505050565b6000806000806000806000806000806101408b8d031215620003ba578586fd5b8a516001600160401b0380821115620003d1578788fd5b620003df8e838f0162000309565b9b50620003ef60208e0162000259565b9a50620003ff60408e0162000259565b99506200040f60608e0162000259565b985060808d015191508082111562000425578788fd5b50620004348d828e0162000276565b96505060a08b0151945060c08b0151935060e08b015192506101008b015191506101208b015190509295989b9194979a5092959850565b604051601f8201601f191681016001600160401b0381118282101715620004965762000496620004db565b604052919050565b600281046001821680620004b357607f821691505b60208210811415620004d557634e487b7160e01b600052602260045260246000fd5b50919050565b634e487b7160e01b600052604160045260246000fd5b6129a880620005016000396000f3fe608060405234801561001057600080fd5b506004361061027e5760003560e01c80637bf412541161015c578063b3ab15fb116100ce578063e4b7251611610087578063e4b7251614610619578063edaafe2014610622578063f0deeda61461062b578063f7fdec2814610634578063f851a44014610641578063fa968eea146106545761027e565b8063b3ab15fb146105bc578063cf2f5039146105cf578063d26abb89146105e2578063d5309c60146105eb578063d9d55eac146105fe578063dd1f7596146106065761027e565b8063951fd60011610120578063951fd600146105475780639e447fc614610568578063a0c7f71c1461057b578063aa6b873a1461058e578063adc7ea37146105a1578063b29c299b146105b45761027e565b80637bf412541461043a578063840725c51461044d5780638456cb59146104605780638c65c81f146104685780638da5cb5b146105345761027e565b8063570ca735116101f5578063704b6c02116101b9578063704b6c02146103ae5780637285c58b146103c1578063766718081461040d5780637adbf973146104165780637b0a47ee146104295780637b3205f5146104325761027e565b8063570ca7351461036157806357fb096f146103745780635c975abb1461038757806360554011146103925780636c1885931461039b5761027e565b8063379607f511610247578063379607f5146102f75780633d429aeb1461030a5780633f4ba83a1461031d578063452fd75a1461032557806349abd8ec1461032d578063518f49d8146103365761027e565b80623bdc741461028357806306fdde031461028d5780630f74174f146102ab5780631451334f146102cd578063368acb09146102e0575b600080fd5b61028b61065d565b005b6102956106ba565b6040516102a291906127b4565b60405180910390f35b6012546102bd90610100900460ff1681565b60405190151581526020016102a2565b6102bd6102db3660046126a2565b610748565b6102e9600b5481565b6040519081526020016102a2565b61028b6103053660046126a2565b610794565b61028b6103183660046126a2565b610a84565b61028b610af3565b61028b610b94565b6102e960055481565b601554610349906001600160a01b031681565b6040516001600160a01b0390911681526020016102a2565b600a54610349906001600160a01b031681565b61028b6103823660046126a2565b610c40565b60005460ff166102bd565b6102e960115481565b61028b6103a93660046126a2565b610eda565b61028b6103bc36600461260d565b610f21565b6103fe6103cf3660046126ba565b6002602081815260009384526040808520909152918352912080546001820154919092015460ff928316921683565b6040516102a29392919061277c565b6102e960045481565b61028b61042436600461260d565b610f71565b6102e9600e5481565b61028b610fc1565b6102bd6104483660046126ba565b6110c1565b601454610349906001600160a01b031681565b61028b611173565b6104d96104763660046126a2565b600160208190526000918252604090912080549181015460028201546003830154600484015460058501546006860154600787015460088801546009890154600a8a0154600b909a01549899979896979596949593949293919290919060ff168c565b604080519c8d5260208d019b909b52998b019890985260608a0196909652608089019490945260a088019290925260c087015260e08601526101008501526101208401526101408301521515610160820152610180016102a2565b600854610349906001600160a01b031681565b61055a610555366004612650565b6111d9565b6040516102a2929190612734565b61028b6105763660046126a2565b611333565b6102bd6105893660046126ba565b6113e0565b61028b61059c3660046126a2565b611596565b61028b6105af3660046126a2565b611800565b6102e9606481565b61028b6105ca36600461260d565b61185f565b61028b6105dd3660046126a2565b6118af565b6102e9600d5481565b61028b6105f93660046126a2565b6118bc565b61028b61192b565b6102e9610614366004612627565b611ace565b6102e9600f5481565b6102e960075481565b6102e960065481565b6012546102bd9060ff1681565b600954610349906001600160a01b031681565b6102e960105481565b610665611aff565b600b80546000909155600954610684906001600160a01b031682611b49565b6040518181527f609175abb7f12481e4f200d1ef4fc834e6caac3d9eadba42d664352f6d0932ca9060200160405180910390a150565b601380546106c790612906565b80601f01602080910402602001604051908101604052809291908181526020018280546106f390612906565b80156107405780601f1061071557610100808354040283529160200191610740565b820191906000526020600020905b81548152906001019060200180831161072357829003601f168201915b505050505081565b60008181526001602081905260408220908101541580159061076d5750600281015415155b801561077c5750806001015442115b801561078b5750806002015442105b9150505b919050565b61079c611bf4565b600081815260016020819052604090912001546107f45760405162461bcd60e51b8152602060048201526011602482015270149bdd5b99081b9bdd081cdd185c9d1959607a1b60448201526064015b60405180910390fd5b60008181526001602052604090206003015442116108465760405162461bcd60e51b815260206004820152600f60248201526e149bdd5b99081b9bdd08195b991959608a1b60448201526064016107eb565b6000818152600260208181526040808420338552909152909120015460ff16156108a45760405162461bcd60e51b815260206004820152600f60248201526e14995dd85c991cc818db185a5b5959608a1b60448201526064016107eb565b6108ae81336113e0565b806108be57506108be81336110c1565b61090a5760405162461bcd60e51b815260206004820152601b60248201527f4e6f7420636c61696d61626c65206f7220726566756e6461626c65000000000060448201526064016107eb565b600061091682336113e0565b156109e7576000828152600160208181526040808420815161018081018352815481528185015481850152600280830154828501526003830154606083015260048301546080830152600583015460a0830152600683015460c0830152600783015460e0830152600883015461010083015260098301546101208301819052600a8401546101408401819052600b9094015460ff161515610160840152898852908552838720338852909452919094209092015491926109df926109d991611c89565b90611c95565b915050610a15565b6109f182336110c1565b15610a15575060008181526002602090815260408083203384529091529020600101545b6000828152600260208181526040808420338086529252909220908101805460ff1916600117905590610a489083611b49565b604051828152839033907f34fcbac0073d7c3d388e51312faf357774904998eeb8fca628b9e6f65ee1cbf79060200160405180910390a3505050565b610a8c611aff565b600654811115610aee5760405162461bcd60e51b815260206004820152602760248201527f6c6f636b20696e74657276616c206d757374206265203c3d20636c6f736520696044820152661b9d195c9d985b60ca1b60648201526084016107eb565b600555565b610afb611aff565b60005460ff16610b445760405162461bcd60e51b815260206004820152601460248201527314185d5cd8589b194e881b9bdd081c185d5cd95960621b60448201526064016107eb565b6012805461ffff19169055610b57611ca1565b7faaa520fdd7d2c83061d632fa017b0432407e798818af63ea908589fceda39ab7600454604051610b8a91815260200190565b60405180910390a1565b610b9c611d2f565b60005460ff1615610bbf5760405162461bcd60e51b81526004016107eb9061283e565b60125460ff1615610c065760405162461bcd60e51b815260206004820152601160248201527043616e206f6e6c792072756e206f6e636560781b60448201526064016107eb565b6000610c10611d7a565b90506004546001610c219190612898565b6004819055610c309082611ef9565b506012805460ff19166001179055565b60005460ff1615610c635760405162461bcd60e51b81526004016107eb9061283e565b610c6b611bf4565b610c76600454610748565b610cb75760405162461bcd60e51b8152602060048201526012602482015271526f756e64206e6f74206265747461626c6560701b60448201526064016107eb565b600454600090815260026020908152604080832033845290915290206001015415610d245760405162461bcd60e51b815260206004820152601b60248201527f43616e206f6e6c7920626574206f6e63652070657220726f756e64000000000060448201526064016107eb565b601054811015610d6f5760405162461bcd60e51b815260206004820152601660248201527517d85b5bdd5b9d080f081b5a5b90995d105b5bdd5b9d60521b60448201526064016107eb565b6015546040516323b872dd60e01b8152336004820152306024820152604481018390526001600160a01b03909116906323b872dd90606401602060405180830381600087803b158015610dc157600080fd5b505af1158015610dd5573d6000803e3d6000fd5b505050506040513d601f19601f82011682018060405250810190610df99190612682565b610e155760405162461bcd60e51b81526004016107eb90612807565b60045460009081526001602052604090206006810154829190610e389083611f89565b60068201556007810154610e4c9083611f89565b600782015560048054600090815260026020908152604080832033808552908352818420805460ff19168155600180820189905560038552928520865481549485018255908652938520909201929092559254915b6040518681527f6c6fb072b0f1fdeb7fc4e51fb0c21cc463eeaa32571ef3ce8e765c607cedf51e9060200160405180910390a450505050565b610ee2611aff565b60108190556004546040518281527f82480e97991520549ac4b5d0e1d97edb3bfac2666202923b6903d2a953dc7608906020015b60405180910390a250565b610f29611f95565b6001600160a01b038116610f4f5760405162461bcd60e51b81526004016107eb90612868565b600980546001600160a01b0319166001600160a01b0392909216919091179055565b610f79611aff565b6001600160a01b038116610f9f5760405162461bcd60e51b81526004016107eb90612868565b600c80546001600160a01b0319166001600160a01b0392909216919091179055565b610fc9611d2f565b60005460ff1615610fec5760405162461bcd60e51b81526004016107eb9061283e565b60125460ff1680156110055750601254610100900460ff165b61105b5760405162461bcd60e51b815260206004820152602160248201527f43616e206f6e6c792072756e2061667465722067656e6573697320726f756e646044820152607360f81b60648201526084016107eb565b6000611065611d7a565b9050611072600454611fdd565b61108a600160045461108491906128ef565b826120fc565b6110a1600160045461109c91906128ef565b6121f6565b6004546110af906001612898565b60048190556110be90826123e5565b50565b6000828152600160205260408120600b015460ff1680156110f8575060008381526001602052604090206005810154600490910154145b8061116c57506000838152600160205260409020600b015460ff1615801561113c575060075460008481526001602052604090206003015461113991611f89565b42115b801561116c575060008381526002602090815260408083206001600160a01b038616845290915290206001015415155b9392505050565b61117b611aff565b60005460ff161561119e5760405162461bcd60e51b81526004016107eb9061283e565b6111a6612518565b7f68b095021b1f40fe513109f513c66692f0b3219aee674a69f4efc57badb8201d600454604051610b8a91815260200190565b6001600160a01b0383166000908152600360205260408120546060919083906112039086906128ef565b811115611231576001600160a01b03861660009081526003602052604090205461122e9086906128ef565b90505b60008167ffffffffffffffff81111561125a57634e487b7160e01b600052604160045260246000fd5b604051908082528060200260200182016040528015611283578160200160208202803683370190505b50905060005b82811015611319576001600160a01b03881660009081526003602052604090206112b38289612898565b815481106112d157634e487b7160e01b600052603260045260246000fd5b90600052602060002001548282815181106112fc57634e487b7160e01b600052603260045260246000fd5b60209081029190910101528061131181612941565b915050611289565b50806113258388612898565b935093505050935093915050565b61133b611aff565b606481111561138c5760405162461bcd60e51b815260206004820152601b60248201527f726577617264526174652063616e6e6f74206265203e2031303025000000000060448201526064016107eb565b600e81905561139c606482612570565b600f819055600454600e5460408051918252602082019390935290917f023010bc68e7f4c0be9887f513c570c7a0f5f511b9716abccd42bf3b8943532b9101610f16565b60008281526002602090815260408083206001600160a01b0385168452909152808220815160608101909252805483929190829060ff16600181111561143657634e487b7160e01b600052602160045260246000fd5b600181111561145557634e487b7160e01b600052602160045260246000fd5b815260018281015460208084019190915260029384015460ff908116151560409485015260008a815283835284902084516101808101865281548152938101549284019290925293810154928201929092526003820154606082015260048201546080820152600582015460a0820152600682015460c0820152600782015460e082015260088201546101008201526009820154610120820152600a820154610140820152600b90910154909116158015610160830181905292935090919061158d575080608001518160a00151138015611550575060008251600181111561154e57634e487b7160e01b600052602160045260246000fd5b145b8061158d575080608001518160a0015112801561158d575060018251600181111561158b57634e487b7160e01b600052602160045260246000fd5b145b95945050505050565b60005460ff16156115b95760405162461bcd60e51b81526004016107eb9061283e565b6115c1611bf4565b6115cc600454610748565b61160d5760405162461bcd60e51b8152602060048201526012602482015271526f756e64206e6f74206265747461626c6560701b60448201526064016107eb565b60045460009081526002602090815260408083203384529091529020600101541561167a5760405162461bcd60e51b815260206004820152601b60248201527f43616e206f6e6c7920626574206f6e63652070657220726f756e64000000000060448201526064016107eb565b6010548110156116c55760405162461bcd60e51b815260206004820152601660248201527517d85b5bdd5b9d080f081b5a5b90995d105b5bdd5b9d60521b60448201526064016107eb565b6015546040516323b872dd60e01b8152336004820152306024820152604481018390526001600160a01b03909116906323b872dd90606401602060405180830381600087803b15801561171757600080fd5b505af115801561172b573d6000803e3d6000fd5b505050506040513d601f19601f8201168201806040525081019061174f9190612682565b61176b5760405162461bcd60e51b81526004016107eb90612807565b6004546000908152600160205260409020600681015482919061178e9083611f89565b600682015560088101546117a29083611f89565b600882015560048054600090815260026020908152604080832033808552908352818420805460ff19166001908117825580820189905560038552928520865481548086018355918752949095209094019290925592549192610ea1565b611808611aff565b60055481111561185a5760405162461bcd60e51b815260206004820152601c60248201527f43616e6e6f74206265206d6f7265207468616e20696e74657276616c0000000060448201526064016107eb565b600755565b611867611aff565b6001600160a01b03811661188d5760405162461bcd60e51b81526004016107eb90612868565b600a80546001600160a01b0319166001600160a01b0392909216919091179055565b6118b7611aff565b601155565b6118c4611aff565b6005548110156119265760405162461bcd60e51b815260206004820152602760248201527f436c6f736520696e74657276616c206d757374206265203e3d206c6f636b20696044820152661b9d195c9d985b60ca1b60648201526084016107eb565b600655565b611933611d2f565b60005460ff16156119565760405162461bcd60e51b81526004016107eb9061283e565b60125460ff166119c25760405162461bcd60e51b815260206004820152603160248201527f43616e206f6e6c792072756e2061667465722067656e657369735374617274526044820152701bdd5b99081a5cc81d1c9a59d9d95c9959607a1b60648201526084016107eb565b601254610100900460ff1615611a0e5760405162461bcd60e51b815260206004820152601160248201527043616e206f6e6c792072756e206f6e636560781b60448201526064016107eb565b600754600454600090815260016020526040902060020154611a2f91611f89565b421115611a885760405162461bcd60e51b815260206004820152602160248201527f43616e206f6e6c79206c6f636b20726f756e642077697468696e2062756666656044820152603960f91b60648201526084016107eb565b6000611a92611d7a565b9050611a9f600454611fdd565b600454611aad906001612898565b6004819055611abc9082611ef9565b506012805461ff001916610100179055565b60036020528160005260406000208181548110611aea57600080fd5b90600052602060002001600091509150505481565b6009546001600160a01b03163314611b475760405162461bcd60e51b815260206004820152600b60248201526a61646d696e3a207775743f60a81b60448201526064016107eb565b565b60155460405163a9059cbb60e01b81526001600160a01b03848116600483015260248201849052600092169063a9059cbb90604401602060405180830381600087803b158015611b9857600080fd5b505af1158015611bac573d6000803e3d6000fd5b505050506040513d601f19601f82011682018060405250810190611bd09190612682565b905080611bef5760405162461bcd60e51b81526004016107eb90612807565b505050565b333b15611c3a5760405162461bcd60e51b815260206004820152601460248201527318dbdb9d1c9858dd081b9bdd08185b1b1bddd95960621b60448201526064016107eb565b333214611b475760405162461bcd60e51b815260206004820152601a60248201527f70726f787920636f6e7472616374206e6f7420616c6c6f77656400000000000060448201526064016107eb565b600061116c82846128d0565b600061116c82846128b0565b60005460ff16611cea5760405162461bcd60e51b815260206004820152601460248201527314185d5cd8589b194e881b9bdd081c185d5cd95960621b60448201526064016107eb565b6000805460ff191690557f5db9ee0a495bf2e6ff9c91a7834c1ba4fdd244a5e8aa4e537bd38aeae4b073aa335b6040516001600160a01b039091168152602001610b8a565b600a546001600160a01b03163314611b475760405162461bcd60e51b815260206004820152600e60248201526d6f70657261746f723a207775743f60901b60448201526064016107eb565b600080611d9260115442611f8990919063ffffffff16565b90506000806000600c60009054906101000a90046001600160a01b03166001600160a01b031663feaf968c6040518163ffffffff1660e01b815260040160a06040518083038186803b158015611de757600080fd5b505afa158015611dfb573d6000803e3d6000fd5b505050506040513d601f19601f82011682018060405250810190611e1f91906126e5565b509350509250925083811115611e835760405162461bcd60e51b8152602060048201526024808201527f4f7261636c6520757064617465206578636565646564206d617820616c6c6f77604482015263616e636560e01b60648201526084016107eb565b600d548369ffffffffffffffffffff161015611ee15760405162461bcd60e51b815260206004820152601e60248201527f4f7261636c652075706461746520726f756e644964203c206f6c64206964000060448201526064016107eb565b5069ffffffffffffffffffff909116600d5591505090565b6000828152600160208190526040909120429181018290556005549091611f1f91611f89565b6002820155600654611f32904290611f89565b60038201558281556000600682015560048101829055604080514281526020810184905284917f9e37e19d9d58170ef7fa39e3af5503e907349528858211f19048af4dbe3d116991015b60405180910390a2505050565b600061116c8284612898565b6008546001600160a01b03163314611b475760405162461bcd60e51b815260206004820152600b60248201526a6f776e65723a207775743f60a81b60448201526064016107eb565b600081815260016020819052604090912001546120305760405162461bcd60e51b8152602060048201526011602482015270149bdd5b99081b9bdd081cdd185c9d1959607a1b60448201526064016107eb565b600081815260016020526040902060020154421080159061206e575060075460008281526001602052604090206002015461206a91611f89565b4211155b6120ca5760405162461bcd60e51b815260206004820152602760248201527f43616e206f6e6c79206c6f636b206265747765656e206c6f636b54696d65202660448201526610313ab33332b960c91b60648201526084016107eb565b807f2a10a104c1d678d140bb24df324113b019210a9ef40e150f0acf0dedde4bc68e42604051610f1691815260200190565b6000828152600160205260409020600201546121505760405162461bcd60e51b81526020600482015260136024820152721c9bdd5b9908191bd95cdb89dd08195e1a5cdd606a1b60448201526064016107eb565b600082815260016020526040902060030154421080159061218e575060075460008381526001602052604090206003015461218a91611f89565b4211155b6121e85760405162461bcd60e51b815260206004820152602560248201527f43616e206f6e6c7920656e64206265747765656e20656e6454696d65202620626044820152643ab33332b960d91b60648201526084016107eb565b6121f2828261257c565b5050565b606461220f600f54600e54611f8990919063ffffffff16565b1461225c5760405162461bcd60e51b815260206004820152601e60248201527f726577617264526174652b74726561737572795261746520213d20313030000060448201526064016107eb565b60008181526001602052604090206009015415801561228a57506000818152600160205260409020600a0154155b6122cb5760405162461bcd60e51b815260206004820152601260248201527114995dd85c991cc818d85b18dd5b185d195960721b60448201526064016107eb565b60008181526001602052604081206004810154600582015491929182918291131561233c578360070154925061231560646109d9600e548760060154611c8990919063ffffffff16565b915061233560646109d9600f548760060154611c8990919063ffffffff16565b905061237d565b836004015484600501541215612371578360080154925061231560646109d9600e548760060154611c8990919063ffffffff16565b50505060068101548060005b60098401839055600a8401829055600b546123989082611f89565b600b55604080518481526020810184905290810182905285907f6dfdfcb09c8804d0058826cd2539f1acfbe3cb887c9be03d928035bce0f1a58d9060600160405180910390a25050505050565b60125460ff166124375760405162461bcd60e51b815260206004820152601f60248201527f67656e657369735374617274526f756e64206e6f74207472696767657265640060448201526064016107eb565b600160006124466002856128ef565b8152602001908152602001600020600301546000141561249e5760405162461bcd60e51b8152602060048201526013602482015272149bdd5b99081b8b4c881b9bdd08195b991959606a1b60448201526064016107eb565b600160006124ad6002856128ef565b81526020019081526020016000206003015442101561250e5760405162461bcd60e51b815260206004820152601d60248201527f526f756e64206e2d3220656e6454696d65206e6f74207265616368656400000060448201526064016107eb565b6121f28282611ef9565b60005460ff161561253b5760405162461bcd60e51b81526004016107eb9061283e565b6000805460ff191660011790557f62e78cea01bee320cd4e420270b5ea74000d11b0c9f74754ebdbfc544b05a258611d173390565b600061116c82846128ef565b60008281526001602081815260409283902060058101859055600b8101805460ff19169093179092558251428152908101849052909184917fb6ff1fe915db84788cbbbc017f0d2bef9485fad9fd0bd8ce9340fde0d8410dd89101611f7c565b80356001600160a01b038116811461078f57600080fd5b805169ffffffffffffffffffff8116811461078f57600080fd5b60006020828403121561261e578081fd5b61116c826125dc565b60008060408385031215612639578081fd5b612642836125dc565b946020939093013593505050565b600080600060608486031215612664578081fd5b61266d846125dc565b95602085013595506040909401359392505050565b600060208284031215612693578081fd5b8151801515811461116c578182fd5b6000602082840312156126b3578081fd5b5035919050565b600080604083850312156126cc578182fd5b823591506126dc602084016125dc565b90509250929050565b600080600080600060a086880312156126fc578081fd5b612705866125f3565b9450602086015193506040860151925060608601519150612728608087016125f3565b90509295509295909350565b604080825283519082018190526000906020906060840190828701845b8281101561276d57815184529284019290840190600101612751565b50505092019290925292915050565b606081016002851061279e57634e487b7160e01b600052602160045260246000fd5b9381526020810192909252151560409091015290565b6000602080835283518082850152825b818110156127e0578581018301518582016040015282016127c4565b818111156127f15783604083870101525b50601f01601f1916929092016040019392505050565b60208082526019908201527f4661696c75726520696e20746f6b656e207472616e7366657200000000000000604082015260600190565b60208082526010908201526f14185d5cd8589b194e881c185d5cd95960821b604082015260600190565b60208082526016908201527543616e6e6f74206265207a65726f206164647265737360501b604082015260600190565b600082198211156128ab576128ab61295c565b500190565b6000826128cb57634e487b7160e01b81526012600452602481fd5b500490565b60008160001904831182151516156128ea576128ea61295c565b500290565b6000828210156129015761290161295c565b500390565b60028104600182168061291a57607f821691505b6020821081141561293b57634e487b7160e01b600052602260045260246000fd5b50919050565b60006000198214156129555761295561295c565b5060010190565b634e487b7160e01b600052601160045260246000fdfea2646970667358221220eedd98909e537a0e4e2dc90ffceabdc56fe67b78e2283890c22d8bc35a1a284a64736f6c63430008020033a2646970667358221220d7ea8c9214be50cff9aa67e2dbf8acd75086bf5b4f14e103e46e9c0587f1ff8564736f6c63430008020033",
  "immutableReferences": {},
  "source": "// SPDX-License-Identifier: MIT\r\n\r\npragma solidity ^0.8.2;\r\nimport './PredMarket.sol';\r\n\r\n\r\ncontract PredMarketFactory{\r\n\r\n    address public owner;\r\n    address public admin;\r\n    address public operator;\r\n\r\n    //tokensPred + tokenStaked => market contract\r\n    mapping(address => mapping(address => address)) public markets;\r\n\r\n    event MarketCreated(\r\n        address indexed tokenPred, \r\n        address indexed tokenStaked,\r\n        address market\r\n        );\r\n\r\n    event SetOwner(address oldOwner, address newOwner);\r\n    event SetAdmin(address oldAdmin, address newAdmin);\r\n    event SetOperator(address oldOperator, address newOperator);\r\n\r\n\r\n\r\n    constructor(\r\n        address _ownerAddress,\r\n        address _adminAddress,\r\n        address _operatorAddress\r\n    ) {\r\n        owner = _ownerAddress;\r\n        admin = _adminAddress;\r\n        operator = _operatorAddress;\r\n        emit SetOwner(address(0), _ownerAddress);\r\n        emit SetAdmin(address(0), _adminAddress);\r\n        emit SetOperator(address(0), _operatorAddress);\r\n    }\r\n\r\n    function createMarket(\r\n        string memory _name,\r\n        address _tokenPred,\r\n        address _tokenStaked,\r\n        address _oracle,\r\n        address[] memory _ownerAdminOperator,\r\n        uint256 _lockInterval,\r\n        uint256 _closeInterval,\r\n        uint256 _buffer,\r\n        uint256 _minBetAmount,\r\n        uint256 _oracleUpdateAllowance\r\n    )\r\n    external\r\n    onlyAdminOrOperator\r\n    {\r\n        require(\r\n            markets[_tokenPred][_tokenStaked] == address(0), \r\n            \"Already deployed\"\r\n            );\r\n        \r\n        PredMarket pred = new PredMarket(\r\n            _name,\r\n            _tokenPred,\r\n            _tokenStaked,\r\n            _oracle,\r\n            _ownerAdminOperator,\r\n            _lockInterval,\r\n            _closeInterval,\r\n            _buffer,\r\n            _minBetAmount,\r\n            _oracleUpdateAllowance\r\n        );\r\n\r\n        markets[_tokenPred][_tokenStaked] = address(pred);\r\n\r\n        emit MarketCreated(_tokenPred, _tokenStaked, address(pred));\r\n\r\n    }\r\n\r\n    function _onlyOwner() internal view{\r\n        require(owner == msg.sender, \"Only owner function\");\r\n    }\r\n\r\n    function _onlyOwnerOrAdmin() internal view{\r\n        require(\r\n            owner == msg.sender ||\r\n            admin == msg.sender,\r\n            \"Only owner or admin function\"\r\n            );\r\n    }\r\n\r\n    function _onlyAdminOrOperator() internal view{\r\n        require(\r\n            admin == msg.sender ||\r\n            operator == msg.sender,\r\n            \"Only admin or operator function\"\r\n            );\r\n    }\r\n    \r\n    modifier onlyOwner{\r\n        _onlyOwner();\r\n        _;\r\n    }\r\n    \r\n    modifier onlyOwnerOrAdmin{\r\n        _onlyOwnerOrAdmin();\r\n        _;\r\n    }\r\n\r\n    modifier onlyAdminOrOperator{\r\n        _onlyAdminOrOperator();\r\n        _;\r\n    }\r\n\r\n    function changeOwner(address _owner) external onlyOwner{\r\n        require(_owner != address(0), \"Zero address\");\r\n        require(owner != _owner, \"Already owner\");\r\n        owner = _owner;\r\n        emit SetOwner(msg.sender, owner);\r\n    }\r\n\r\n    function changeAdmin(address _admin) external onlyOwner{\r\n        require(_admin != address(0), \"Zero address\");\r\n        require(admin != _admin, \"Already admin\");\r\n        address oldAdmin = admin;\r\n        admin = _admin;\r\n        emit SetAdmin(oldAdmin, admin);\r\n    }\r\n\r\n    function changeOperator(address _operator) external onlyOwnerOrAdmin{\r\n        require(_operator != address(0), 'Zero address');\r\n        require(operator != _operator, 'Already operator');\r\n        address oldOperator = operator;\r\n        operator = _operator;\r\n        emit SetOperator(oldOperator, _operator);\r\n    }\r\n    \r\n}",
  "sourcePath": "C:\\Users\\shiva\\OneDrive\\Desktop\\PredMarkets\\contracts\\PredMarketFactory.sol",
  "compiler": {
    "name": "solc",
    "version": "0.8.2+commit.661d1103.Emscripten.clang"
  },
  "schemaVersion": "3.4.4",
  "updatedAt": "2022-01-26T06:16:24.558Z",
  "networkType": "ethereum",
  "devdoc": {
    "kind": "dev",
    "methods": {},
    "version": 1
  },
  "userdoc": {
    "kind": "user",
    "methods": {},
    "version": 1
  }
}