{
  "contractName": "PredMarketFactory",
  "abi": [
    {
      "inputs": [
        {
          "internalType": "address",
          "name": "_ownerAddress",
          "type": "address"
        },
        {
          "internalType": "address",
          "name": "_adminAddress",
          "type": "address"
        },
        {
          "internalType": "address",
          "name": "_operatorAddress",
          "type": "address"
        }
      ],
      "stateMutability": "nonpayable",
      "type": "constructor"
    },
    {
      "anonymous": false,
      "inputs": [
        {
          "indexed": true,
          "internalType": "address",
          "name": "tokenPred",
          "type": "address"
        },
        {
          "indexed": true,
          "internalType": "address",
          "name": "tokenStaked",
          "type": "address"
        },
        {
          "indexed": false,
          "internalType": "address",
          "name": "market",
          "type": "address"
        }
      ],
      "name": "MarketCreated",
      "type": "event"
    },
    {
      "anonymous": false,
      "inputs": [
        {
          "indexed": false,
          "internalType": "address",
          "name": "oldAdmin",
          "type": "address"
        },
        {
          "indexed": false,
          "internalType": "address",
          "name": "newAdmin",
          "type": "address"
        }
      ],
      "name": "SetAdmin",
      "type": "event"
    },
    {
      "anonymous": false,
      "inputs": [
        {
          "indexed": false,
          "internalType": "address",
          "name": "oldOperator",
          "type": "address"
        },
        {
          "indexed": false,
          "internalType": "address",
          "name": "newOperator",
          "type": "address"
        }
      ],
      "name": "SetOperator",
      "type": "event"
    },
    {
      "anonymous": false,
      "inputs": [
        {
          "indexed": false,
          "internalType": "address",
          "name": "oldOwner",
          "type": "address"
        },
        {
          "indexed": false,
          "internalType": "address",
          "name": "newOwner",
          "type": "address"
        }
      ],
      "name": "SetOwner",
      "type": "event"
    },
    {
      "inputs": [],
      "name": "admin",
      "outputs": [
        {
          "internalType": "address",
          "name": "",
          "type": "address"
        }
      ],
      "stateMutability": "view",
      "type": "function"
    },
    {
      "inputs": [
        {
          "internalType": "address",
          "name": "",
          "type": "address"
        },
        {
          "internalType": "address",
          "name": "",
          "type": "address"
        }
      ],
      "name": "markets",
      "outputs": [
        {
          "internalType": "address",
          "name": "",
          "type": "address"
        }
      ],
      "stateMutability": "view",
      "type": "function"
    },
    {
      "inputs": [],
      "name": "operator",
      "outputs": [
        {
          "internalType": "address",
          "name": "",
          "type": "address"
        }
      ],
      "stateMutability": "view",
      "type": "function"
    },
    {
      "inputs": [],
      "name": "owner",
      "outputs": [
        {
          "internalType": "address",
          "name": "",
          "type": "address"
        }
      ],
      "stateMutability": "view",
      "type": "function"
    },
    {
      "inputs": [
        {
          "internalType": "string",
          "name": "_name",
          "type": "string"
        },
        {
          "internalType": "address",
          "name": "_tokenPred",
          "type": "address"
        },
        {
          "internalType": "address",
          "name": "_tokenStaked",
          "type": "address"
        },
        {
          "internalType": "address",
          "name": "_oracle",
          "type": "address"
        },
        {
          "internalType": "address[]",
          "name": "_ownerAdminOperator",
          "type": "address[]"
        },
        {
          "internalType": "uint256",
          "name": "_lockInterval",
          "type": "uint256"
        },
        {
          "internalType": "uint256",
          "name": "_closeInterval",
          "type": "uint256"
        },
        {
          "internalType": "uint256",
          "name": "_buffer",
          "type": "uint256"
        },
        {
          "internalType": "uint256",
          "name": "_minBetAmount",
          "type": "uint256"
        },
        {
          "internalType": "uint256",
          "name": "_oracleUpdateAllowance",
          "type": "uint256"
        }
      ],
      "name": "createMarket",
      "outputs": [],
      "stateMutability": "nonpayable",
      "type": "function"
    },
    {
      "inputs": [
        {
          "internalType": "address",
          "name": "_owner",
          "type": "address"
        }
      ],
      "name": "changeOwner",
      "outputs": [],
      "stateMutability": "nonpayable",
      "type": "function"
    },
    {
      "inputs": [
        {
          "internalType": "address",
          "name": "_admin",
          "type": "address"
        }
      ],
      "name": "changeAdmin",
      "outputs": [],
      "stateMutability": "nonpayable",
      "type": "function"
    },
    {
      "inputs": [
        {
          "internalType": "address",
          "name": "_operator",
          "type": "address"
        }
      ],
      "name": "changeOperator",
      "outputs": [],
      "stateMutability": "nonpayable",
      "type": "function"
    },
    {
      "inputs": [
        {
          "internalType": "address",
          "name": "token",
          "type": "address"
        }
      ],
      "name": "withdrawAllTokens",
      "outputs": [],
      "stateMutability": "nonpayable",
      "type": "function"
    },
    {
      "inputs": [
        {
          "internalType": "address",
          "name": "token",
          "type": "address"
        },
        {
          "internalType": "uint256",
          "name": "amount",
          "type": "uint256"
        }
      ],
      "name": "withdrawToken",
      "outputs": [],
      "stateMutability": "nonpayable",
      "type": "function"
    },
    {
      "inputs": [],
      "name": "withdrawAllNative",
      "outputs": [],
      "stateMutability": "nonpayable",
      "type": "function"
    },
    {
      "inputs": [
        {
          "internalType": "uint256",
          "name": "amount",
          "type": "uint256"
        }
      ],
      "name": "withdrawNative",
      "outputs": [],
      "stateMutability": "nonpayable",
      "type": "function"
    }
  ],
  "bytecode": "0x608060405234801561001057600080fd5b506040516200475c3803806200475c8339810160408190526100319161014d565b600080546001600160a01b03199081166001600160a01b03868116918217845560018054841687831617905560028054909316908516179091556040805192835260208301919091527fcbf985117192c8f614a58aaf97226bb80a754772f5f6edf06f87c675f2e6c663910160405180910390a160408051600081526001600160a01b03841660208201527f848ac24ab84501710d6631faab117b66b79aba7ec6f7778cf3bcff428c1a4efc910160405180910390a160408051600081526001600160a01b03831660208201527f2709918445f306d3e94d280907c62c5d2525ac3192d2e544774c7f181d65af3e910160405180910390a150505061018f565b80516001600160a01b038116811461014857600080fd5b919050565b600080600060608486031215610161578283fd5b61016a84610131565b925061017860208501610131565b915061018660408501610131565b90509250925092565b6145bd806200019f6000396000f3fe60806040523480156200001157600080fd5b5060043610620000c45760003560e01c80638da5cb5b116200007b5780638da5cb5b14620001815780638f28397014620001955780639e281a9814620001ac578063a6f9dae114620001c3578063a878aee614620001da578063f851a44014620001f157620000c4565b806306394c9b14620000c9578063482fe02414620000e25780634b5d120e14620000ec578063570ca735146200010357806384276d811462000133578063847d4715146200014a575b600080fd5b620000e0620000da36600462000dda565b62000205565b005b620000e0620002f6565b620000e0620000fd36600462000e7c565b6200030f565b60025462000117906001600160a01b031681565b6040516001600160a01b03909116815260200160405180910390f35b620000e06200014436600462000f4a565b6200044f565b620001176200015b36600462000df7565b60036020908152600092835260408084209091529082529020546001600160a01b031681565b60005462000117906001600160a01b031681565b620000e0620001a636600462000dda565b62000563565b620000e0620001bd36600462000e2e565b62000641565b620000e0620001d436600462000dda565b62000747565b620000e0620001eb36600462000dda565b62000829565b60015462000117906001600160a01b031681565b6200020f620008c3565b6001600160a01b038116620002415760405162461bcd60e51b8152600401620002389062001084565b60405180910390fd5b6002546001600160a01b0382811691161415620002945760405162461bcd60e51b815260206004820152601060248201526f20b63932b0b23c9037b832b930ba37b960811b604482015260640162000238565b600280546001600160a01b038381166001600160a01b031983168117909355604080519190921680825260208201939093527f2709918445f306d3e94d280907c62c5d2525ac3192d2e544774c7f181d65af3e91015b60405180910390a15050565b6200030062000937565b476200030c816200044f565b50565b6200031962000989565b6001600160a01b0389811660009081526003602090815260408083208c851684529091529020541615620003835760405162461bcd60e51b815260206004820152601060248201526f105b1c9958591e4819195c1b1bde595960821b604482015260640162000238565b60008a8a8a8a8a8a8a8a8a8a6040516200039d9062000cae565b620003b29a9998979695949392919062000fdd565b604051809103906000f080158015620003cf573d6000803e3d6000fd5b506001600160a01b038b811660008181526003602090815260408083208f86168085529083529281902080546001600160a01b0319169587169586179055519384529394509290917fe63e6130091e2155004c4b5ac35e8fb9be704d6637ff3068a8f710ba36c9f41a910160405180910390a35050505050505050505050565b6200045962000937565b4781811015620004c15760405162461bcd60e51b815260206004820152602c60248201527f62616c616e616365206f66206e617469766520746f6b656e20696e20636f6e7460448201526b7261637420746f6f206c6f7760a01b606482015260840162000238565b600080546040516001600160a01b039091169084908381818185875af1925050503d806000811462000510576040519150601f19603f3d011682016040523d82523d6000602084013e62000515565b606091505b50509050806200055e5760405162461bcd60e51b81526020600482015260136024820152722330b4b63ab9329034b7103a3930b739b332b960691b604482015260640162000238565b505050565b6200056d62000937565b6001600160a01b038116620005965760405162461bcd60e51b8152600401620002389062001084565b6001546001600160a01b0382811691161415620005e65760405162461bcd60e51b815260206004820152600d60248201526c20b63932b0b23c9030b236b4b760991b604482015260640162000238565b600180546001600160a01b038381166001600160a01b031983161792839055604080519282168084529390911660208301527f848ac24ab84501710d6631faab117b66b79aba7ec6f7778cf3bcff428c1a4efc9101620002ea565b6200064b62000937565b6040516370a0823160e01b81523060048201526000906001600160a01b038416906370a082319060240160206040518083038186803b1580156200068e57600080fd5b505afa158015620006a3573d6000803e3d6000fd5b505050506040513d601f19601f82011682018060405250810190620006c9919062000f63565b9050818110156200072b5760405162461bcd60e51b815260206004820152602560248201527f62616c616e616365206f6620746f6b656e20696e20636f6e747261637420746f6044820152646f206c6f7760d81b606482015260840162000238565b6000546200055e906001600160a01b03858116911684620009fb565b6200075162000937565b6001600160a01b0381166200077a5760405162461bcd60e51b8152600401620002389062001084565b6000546001600160a01b0382811691161415620007ca5760405162461bcd60e51b815260206004820152600d60248201526c20b63932b0b23c9037bbb732b960991b604482015260640162000238565b600080546001600160a01b0319166001600160a01b038381169190911791829055604080513381529290911660208301527fcbf985117192c8f614a58aaf97226bb80a754772f5f6edf06f87c675f2e6c663910160405180910390a150565b6200083362000937565b6040516370a0823160e01b81523060048201526000906001600160a01b038316906370a082319060240160206040518083038186803b1580156200087657600080fd5b505afa1580156200088b573d6000803e3d6000fd5b505050506040513d601f19601f82011682018060405250810190620008b1919062000f63565b9050620008bf828262000641565b5050565b6000546001600160a01b0316331480620008e757506001546001600160a01b031633145b620009355760405162461bcd60e51b815260206004820152601c60248201527f4f6e6c79206f776e6572206f722061646d696e2066756e6374696f6e00000000604482015260640162000238565b565b6000546001600160a01b03163314620009355760405162461bcd60e51b815260206004820152601360248201527227b7363c9037bbb732b910333ab731ba34b7b760691b604482015260640162000238565b6001546001600160a01b0316331480620009ad57506002546001600160a01b031633145b620009355760405162461bcd60e51b815260206004820152601f60248201527f4f6e6c792061646d696e206f72206f70657261746f722066756e6374696f6e00604482015260640162000238565b604080516001600160a01b03848116602483015260448083018590528351808403909101815260649092018352602080830180516001600160e01b031663a9059cbb60e01b17905283518085019094528084527f5361666545524332303a206c6f772d6c6576656c2063616c6c206661696c6564908401526200055e9286929160009162000a8e91851690849062000b10565b8051909150156200055e578080602001905181019062000aaf919062000e5a565b6200055e5760405162461bcd60e51b815260206004820152602a60248201527f5361666545524332303a204552433230206f7065726174696f6e20646964206e6044820152691bdd081cdd58d8d9595960b21b606482015260840162000238565b606062000b21848460008562000b2b565b90505b9392505050565b60608247101562000b8e5760405162461bcd60e51b815260206004820152602660248201527f416464726573733a20696e73756666696369656e742062616c616e636520666f6044820152651c8818d85b1b60d21b606482015260840162000238565b62000b998562000c66565b62000be75760405162461bcd60e51b815260206004820152601d60248201527f416464726573733a2063616c6c20746f206e6f6e2d636f6e7472616374000000604482015260640162000238565b600080866001600160a01b0316858760405162000c05919062000faa565b60006040518083038185875af1925050503d806000811462000c44576040519150601f19603f3d011682016040523d82523d6000602084013e62000c49565b606091505b509150915062000c5b82828662000c70565b979650505050505050565b803b15155b919050565b6060831562000c8157508162000b24565b82511562000c925782518084602001fd5b8160405162461bcd60e51b815260040162000238919062000fc8565b613460806200112883390190565b80356001600160a01b038116811462000c6b57600080fd5b600082601f83011262000ce5578081fd5b8135602067ffffffffffffffff82111562000d045762000d0462001111565b80820262000d14828201620010aa565b83815282810190868401838801850189101562000d2f578687fd5b8693505b8584101562000d5c5762000d478162000cbc565b83526001939093019291840191840162000d33565b50979650505050505050565b600082601f83011262000d79578081fd5b813567ffffffffffffffff81111562000d965762000d9662001111565b62000dab601f8201601f1916602001620010aa565b81815284602083860101111562000dc0578283fd5b816020850160208301379081016020019190915292915050565b60006020828403121562000dec578081fd5b62000b248262000cbc565b6000806040838503121562000e0a578081fd5b62000e158362000cbc565b915062000e256020840162000cbc565b90509250929050565b6000806040838503121562000e41578182fd5b62000e4c8362000cbc565b946020939093013593505050565b60006020828403121562000e6c578081fd5b8151801515811462000b24578182fd5b6000806000806000806000806000806101408b8d03121562000e9c578586fd5b8a3567ffffffffffffffff8082111562000eb4578788fd5b62000ec28e838f0162000d68565b9b5062000ed260208e0162000cbc565b9a5062000ee260408e0162000cbc565b995062000ef260608e0162000cbc565b985060808d013591508082111562000f08578788fd5b5062000f178d828e0162000cd4565b9a9d999c50979a96999860a0880135985060c08801359760e0810135975061010081013596506101200135945092505050565b60006020828403121562000f5c578081fd5b5035919050565b60006020828403121562000f75578081fd5b5051919050565b6000815180845262000f96816020860160208601620010de565b601f01601f19169290920160200192915050565b6000825162000fbe818460208701620010de565b9190910192915050565b60006020825262000b24602083018462000f7c565b600061014080835262000ff38184018e62000f7c565b6001600160a01b038d81166020868101919091528d821660408701528c8216606087015285830360808701528b518084528c820194509092830190855b818110156200105057855184168352948401949184019160010162001030565b505060a086019a909a525050505060c081019490945260e08401929092526101008301526101209091015295945050505050565b6020808252600c908201526b5a65726f206164647265737360a01b604082015260600190565b604051601f8201601f1916810167ffffffffffffffff81118282101715620010d657620010d662001111565b604052919050565b60005b83811015620010fb578181015183820152602001620010e1565b838111156200110b576000848401525b50505050565b634e487b7160e01b600052604160045260246000fdfe6080604052620dbba0600f55620186a06010556013805461ffff191690553480156200002a57600080fd5b5060405162003460380380620034608339810160408190526200004d916200039e565b6000805460ff1916905589516200006c9060149060208d0190620001b7565b50601580546001600160a01b03808c166001600160a01b031992831617909255601680548b8416908316179055600d8054928a169290911691909117905585518690600090620000cc57634e487b7160e01b600052603260045260246000fd5b6020026020010151600960006101000a8154816001600160a01b0302191690836001600160a01b03160217905550856001815181106200011c57634e487b7160e01b600052603260045260246000fd5b6020026020010151600a60006101000a8154816001600160a01b0302191690836001600160a01b03160217905550856002815181106200016c57634e487b7160e01b600052603260045260246000fd5b6020908102919091010151600b80546001600160a01b0319166001600160a01b0390921691909117905560069490945560079290925560085560115560125550620004f59350505050565b828054620001c590620004a2565b90600052602060002090601f016020900481019282620001e9576000855562000234565b82601f106200020457805160ff191683800117855562000234565b8280016001018555821562000234579182015b828111156200023457825182559160200191906001019062000217565b506200024292915062000246565b5090565b5b8082111562000242576000815560010162000247565b80516001600160a01b03811681146200027557600080fd5b919050565b600082601f8301126200028b578081fd5b815160206001600160401b03821115620002a957620002a9620004df565b808202620002b98282016200046f565b838152828101908684018388018501891015620002d4578687fd5b8693505b858410156200030157620002ec816200025d565b835260019390930192918401918401620002d8565b50979650505050505050565b600082601f8301126200031e578081fd5b81516001600160401b038111156200033a576200033a620004df565b602062000350601f8301601f191682016200046f565b828152858284870101111562000364578384fd5b835b838110156200038357858101830151828201840152820162000366565b838111156200039457848385840101525b5095945050505050565b6000806000806000806000806000806101408b8d031215620003be578586fd5b8a516001600160401b0380821115620003d5578788fd5b620003e38e838f016200030d565b9b50620003f360208e016200025d565b9a506200040360408e016200025d565b99506200041360608e016200025d565b985060808d015191508082111562000429578788fd5b50620004388d828e016200027a565b96505060a08b0151945060c08b0151935060e08b015192506101008b015191506101208b015190509295989b9194979a5092959850565b604051601f8201601f191681016001600160401b03811182821017156200049a576200049a620004df565b604052919050565b600281046001821680620004b757607f821691505b60208210811415620004d957634e487b7160e01b600052602260045260246000fd5b50919050565b634e487b7160e01b600052604160045260246000fd5b612f5b80620005056000396000f3fe608060405234801561001057600080fd5b50600436106102d55760003560e01c80637bf4125411610182578063adc7ea37116100e9578063dd1f7596116100a2578063f0deeda61161007c578063f0deeda6146106fa578063f7fdec2814610703578063f851a44014610710578063fa968eea14610723576102d5565b8063dd1f7596146106d5578063e4b72516146106e8578063edaafe20146106f1576102d5565b8063adc7ea3714610678578063b3ab15fb1461068b578063cf2f50391461069e578063d26abb89146106b1578063d5309c60146106ba578063d9d55eac146106cd576102d5565b8063951fd6001161013b578063951fd600146105f85780639e281a98146106195780639e447fc61461062c578063a0c7f71c1461063f578063a878aee614610652578063aa6b873a14610665576102d5565b80637bf41254146104d8578063840725c5146104eb57806384276d81146104fe5780638456cb59146105115780638c65c81f146105195780638da5cb5b146105e5576102d5565b806349abd8ec116102415780636c188593116101fa57806376671808116101d457806376671808146104ab5780637adbf973146104b45780637b0a47ee146104c75780637b3205f5146104d0576102d5565b80636c18859314610439578063704b6c021461044c5780637285c58b1461045f576102d5565b806349abd8ec146103cb578063518f49d8146103d4578063570ca735146103ff57806357fb096f146104125780635c975abb146104255780636055401114610430576102d5565b8063368acb0911610293578063368acb0914610384578063379607f51461038d5780633d429aeb146103a05780633f4ba83a146103b3578063452fd75a146103bb578063482fe024146103c3576102d5565b80623bdc74146102da57806306fdde03146102e45780630f74174f146103025780631451334f146103245780631cbeae5e146103375780632b3ba6811461036c575b600080fd5b6102e261072c565b005b6102ec6107d7565b6040516102f99190612d92565b60405180910390f35b60135461031490610100900460ff1681565b60405190151581526020016102f9565b610314610332366004612c4c565b610865565b61035a610345366004612c4c565b60046020526000908152604090205460ff1681565b60405160ff90911681526020016102f9565b610376620f424081565b6040519081526020016102f9565b610376600c5481565b6102e261039b366004612c4c565b6108b1565b6102e26103ae366004612c4c565b610b9c565b6102e2610c0b565b6102e2610cac565b6102e2610d58565b61037660065481565b6016546103e7906001600160a01b031681565b6040516001600160a01b0390911681526020016102f9565b600b546103e7906001600160a01b031681565b610314610420366004612c4c565b610d6d565b60005460ff16610314565b61037660125481565b6102e2610447366004612c4c565b610f7f565b6102e261045a366004612bb7565b610fc6565b61049c61046d366004612c7c565b6002602081815260009384526040808520909152918352912080546001820154919092015460ff928316921683565b6040516102f993929190612d5a565b61037660055481565b6102e26104c2366004612bb7565b611016565b610376600f5481565b6102e2611066565b6103146104e6366004612c7c565b611163565b6015546103e7906001600160a01b031681565b6102e261050c366004612c4c565b611215565b6102e2611321565b61058a610527366004612c4c565b600160208190526000918252604090912080549181015460028201546003830154600484015460058501546006860154600787015460088801546009890154600a8a0154600b909a01549899979896979596949593949293919290919060ff168c565b604080519c8d5260208d019b909b52998b019890985260608a0196909652608089019490945260a088019290925260c087015260e08601526101008501526101208401526101408301521515610160820152610180016102f9565b6009546103e7906001600160a01b031681565b61060b610606366004612bfa565b611387565b6040516102f9929190612d12565b6102e2610627366004612bd1565b6114e1565b6102e261063a366004612c4c565b61163b565b61031461064d366004612c7c565b6116ec565b6102e2610660366004612bb7565b6118a2565b610314610673366004612c4c565b611934565b6102e2610686366004612c4c565b611b11565b6102e2610699366004612bb7565b611b70565b6102e26106ac366004612c4c565b611bc0565b610376600e5481565b6102e26106c8366004612c4c565b611bcd565b6102e2611c3c565b6103766106e3366004612bd1565b611ddf565b61037660105481565b61037660085481565b61037660075481565b6013546103149060ff1681565b600a546103e7906001600160a01b031681565b61037660115481565b610734611e10565b6000600c54116107825760405162461bcd60e51b815260206004820152601460248201527316995c9bc81d1c99585cdd5c9e48185b5bdd5b9d60621b60448201526064015b60405180910390fd5b600c80546000909155600a546107a1906001600160a01b031682611e5a565b6040518181527f609175abb7f12481e4f200d1ef4fc834e6caac3d9eadba42d664352f6d0932ca9060200160405180910390a150565b601480546107e490612eb9565b80601f016020809104026020016040519081016040528092919081815260200182805461081090612eb9565b801561085d5780601f106108325761010080835404028352916020019161085d565b820191906000526020600020905b81548152906001019060200180831161084057829003601f168201915b505050505081565b60008181526001602081905260408220908101541580159061088a5750600281015415155b80156108995750806001015442115b80156108a85750806002015442105b9150505b919050565b6108b9611e71565b6000818152600160208190526040909120015461090c5760405162461bcd60e51b8152602060048201526011602482015270149bdd5b99081b9bdd081cdd185c9d1959607a1b6044820152606401610779565b600081815260016020526040902060030154421161095e5760405162461bcd60e51b815260206004820152600f60248201526e149bdd5b99081b9bdd08195b991959608a1b6044820152606401610779565b6000818152600260208181526040808420338552909152909120015460ff16156109bc5760405162461bcd60e51b815260206004820152600f60248201526e14995dd85c991cc818db185a5b5959608a1b6044820152606401610779565b6109c681336116ec565b806109d657506109d68133611163565b610a225760405162461bcd60e51b815260206004820152601b60248201527f4e6f7420636c61696d61626c65206f7220726566756e6461626c6500000000006044820152606401610779565b6000610a2e82336116ec565b15610aff576000828152600160208181526040808420815161018081018352815481528185015481850152600280830154828501526003830154606083015260048301546080830152600583015460a0830152600683015460c0830152600783015460e0830152600883015461010083015260098301546101208301819052600a8401546101408401819052600b9094015460ff16151561016084015289885290855283872033885290945291909420909201549192610af792610af191611f06565b90611f12565b915050610b2d565b610b098233611163565b15610b2d575060008181526002602090815260408083203384529091529020600101545b6000828152600260208181526040808420338086529252909220908101805460ff1916600117905590610b609083611e5a565b604051828152839033907f34fcbac0073d7c3d388e51312faf357774904998eeb8fca628b9e6f65ee1cbf79060200160405180910390a3505050565b610ba4611e10565b600754811115610c065760405162461bcd60e51b815260206004820152602760248201527f6c6f636b20696e74657276616c206d757374206265203c3d20636c6f736520696044820152661b9d195c9d985b60ca1b6064820152608401610779565b600655565b610c13611e10565b60005460ff16610c5c5760405162461bcd60e51b815260206004820152601460248201527314185d5cd8589b194e881b9bdd081c185d5cd95960621b6044820152606401610779565b6013805461ffff19169055610c6f611f1e565b7faaa520fdd7d2c83061d632fa017b0432407e798818af63ea908589fceda39ab7600554604051610ca291815260200190565b60405180910390a1565b610cb4611fac565b60005460ff1615610cd75760405162461bcd60e51b815260040161077990612dc5565b60135460ff1615610d1e5760405162461bcd60e51b815260206004820152601160248201527043616e206f6e6c792072756e206f6e636560781b6044820152606401610779565b6000610d28611ff7565b90506005546001610d399190612e1f565b6005819055610d489082612176565b506013805460ff19166001179055565b610d60612206565b47610d6a81611215565b50565b6000805460ff1615610d915760405162461bcd60e51b815260040161077990612dc5565b610d99611e71565b610da4600554610865565b610de55760405162461bcd60e51b8152602060048201526012602482015271526f756e64206e6f74206265747461626c6560701b6044820152606401610779565b600554600090815260026020908152604080832033845290915290206001015415610e525760405162461bcd60e51b815260206004820152601b60248201527f43616e206f6e6c7920626574206f6e63652070657220726f756e6400000000006044820152606401610779565b601154821015610e9d5760405162461bcd60e51b815260206004820152601660248201527517d85b5bdd5b9d080f081b5a5b90995d105b5bdd5b9d60521b6044820152606401610779565b601654610eb5906001600160a01b031633308561224e565b60055460009081526001602052604090206006810154839190610ed890836122bf565b60068201556007810154610eec90836122bf565b600782015560058054600090815260026020908152604080832033808552908352818420805460ff19168155600180820189905560038552928520865481549485018255908652938520909201929092559254915b6040518681527f6c6fb072b0f1fdeb7fc4e51fb0c21cc463eeaa32571ef3ce8e765c607cedf51e9060200160405180910390a4506001949350505050565b610f87611e10565b60118190556005546040518281527f82480e97991520549ac4b5d0e1d97edb3bfac2666202923b6903d2a953dc7608906020015b60405180910390a250565b610fce612206565b6001600160a01b038116610ff45760405162461bcd60e51b815260040161077990612def565b600a80546001600160a01b0319166001600160a01b0392909216919091179055565b61101e611e10565b6001600160a01b0381166110445760405162461bcd60e51b815260040161077990612def565b600d80546001600160a01b0319166001600160a01b0392909216919091179055565b61106e611fac565b60005460ff16156110915760405162461bcd60e51b815260040161077990612dc5565b60135460ff1680156110aa5750601354610100900460ff165b6111005760405162461bcd60e51b815260206004820152602160248201527f43616e206f6e6c792072756e2061667465722067656e6573697320726f756e646044820152607360f81b6064820152608401610779565b600061110a611ff7565b90506111176005546122cb565b61112f60016005546111299190612e76565b826123ea565b61114660016005546111419190612e76565b6124e0565b600554611154906001612e1f565b6005819055610d6a9082612715565b6000828152600160205260408120600b015460ff16801561119a575060008381526001602052604090206005810154600490910154145b8061120e57506000838152600160205260409020600b015460ff161580156111de57506008546000848152600160205260409020600301546111db916122bf565b42115b801561120e575060008381526002602090815260408083206001600160a01b038616845290915290206001015415155b9392505050565b61121d612206565b47818110156112835760405162461bcd60e51b815260206004820152602c60248201527f62616c616e616365206f66206e617469766520746f6b656e20696e20636f6e7460448201526b7261637420746f6f206c6f7760a01b6064820152608401610779565b6009546040516000916001600160a01b03169084908381818185875af1925050503d80600081146112d0576040519150601f19603f3d011682016040523d82523d6000602084013e6112d5565b606091505b505090508061131c5760405162461bcd60e51b81526020600482015260136024820152722330b4b63ab9329034b7103a3930b739b332b960691b6044820152606401610779565b505050565b611329611e10565b60005460ff161561134c5760405162461bcd60e51b815260040161077990612dc5565b611354612848565b7f68b095021b1f40fe513109f513c66692f0b3219aee674a69f4efc57badb8201d600554604051610ca291815260200190565b6001600160a01b0383166000908152600360205260408120546060919083906113b1908690612e76565b8111156113df576001600160a01b0386166000908152600360205260409020546113dc908690612e76565b90505b60008167ffffffffffffffff81111561140857634e487b7160e01b600052604160045260246000fd5b604051908082528060200260200182016040528015611431578160200160208202803683370190505b50905060005b828110156114c7576001600160a01b03881660009081526003602052604090206114618289612e1f565b8154811061147f57634e487b7160e01b600052603260045260246000fd5b90600052602060002001548282815181106114aa57634e487b7160e01b600052603260045260246000fd5b6020908102919091010152806114bf81612ef4565b915050611437565b50806114d38388612e1f565b935093505050935093915050565b6114e9612206565b6016546001600160a01b03838116911614156115475760405162461bcd60e51b815260206004820181905260248201527f43616e6e6f742077697468647261772074686520746f6b656e207374616b65646044820152606401610779565b6040516370a0823160e01b81523060048201526000906001600160a01b038416906370a082319060240160206040518083038186803b15801561158957600080fd5b505afa15801561159d573d6000803e3d6000fd5b505050506040513d601f19601f820116820180604052508101906115c19190612c64565b9050818110156116215760405162461bcd60e51b815260206004820152602560248201527f62616c616e616365206f6620746f6b656e20696e20636f6e747261637420746f6044820152646f206c6f7760d81b6064820152608401610779565b60095461131c906001600160a01b038581169116846128a0565b611643611e10565b620f42408111156116965760405162461bcd60e51b815260206004820152601b60248201527f726577617264526174652063616e6e6f74206265203e203130302500000000006044820152606401610779565b600f8190556116a8620f4240826128d0565b6010819055600554600f5460408051918252602082019390935290917f023010bc68e7f4c0be9887f513c570c7a0f5f511b9716abccd42bf3b8943532b9101610fbb565b60008281526002602090815260408083206001600160a01b0385168452909152808220815160608101909252805483929190829060ff16600181111561174257634e487b7160e01b600052602160045260246000fd5b600181111561176157634e487b7160e01b600052602160045260246000fd5b815260018281015460208084019190915260029384015460ff908116151560409485015260008a815283835284902084516101808101865281548152938101549284019290925293810154928201929092526003820154606082015260048201546080820152600582015460a0820152600682015460c0820152600782015460e082015260088201546101008201526009820154610120820152600a820154610140820152600b909101549091161580156101608301819052929350909190611899575080608001518160a0015113801561185c575060008251600181111561185a57634e487b7160e01b600052602160045260246000fd5b145b80611899575080608001518160a00151128015611899575060018251600181111561189757634e487b7160e01b600052602160045260246000fd5b145b95945050505050565b6118aa612206565b6040516370a0823160e01b81523060048201526000906001600160a01b038316906370a082319060240160206040518083038186803b1580156118ec57600080fd5b505afa158015611900573d6000803e3d6000fd5b505050506040513d601f19601f820116820180604052508101906119249190612c64565b905061193082826114e1565b5050565b6000805460ff16156119585760405162461bcd60e51b815260040161077990612dc5565b611960611e71565b61196b600554610865565b6119ac5760405162461bcd60e51b8152602060048201526012602482015271526f756e64206e6f74206265747461626c6560701b6044820152606401610779565b600554600090815260026020908152604080832033845290915290206001015415611a195760405162461bcd60e51b815260206004820152601b60248201527f43616e206f6e6c7920626574206f6e63652070657220726f756e6400000000006044820152606401610779565b601154821015611a645760405162461bcd60e51b815260206004820152601660248201527517d85b5bdd5b9d080f081b5a5b90995d105b5bdd5b9d60521b6044820152606401610779565b601654611a7c906001600160a01b031633308561224e565b60055460009081526001602052604090206006810154839190611a9f90836122bf565b60068201556008810154611ab390836122bf565b600882015560058054600090815260026020908152604080832033808552908352818420805460ff19166001908117825580820189905560038552928520865481548086018355918752949095209094019290925592549192610f41565b611b19611e10565b600654811115611b6b5760405162461bcd60e51b815260206004820152601c60248201527f43616e6e6f74206265206d6f7265207468616e20696e74657276616c000000006044820152606401610779565b600855565b611b78611e10565b6001600160a01b038116611b9e5760405162461bcd60e51b815260040161077990612def565b600b80546001600160a01b0319166001600160a01b0392909216919091179055565b611bc8611e10565b601255565b611bd5611e10565b600654811015611c375760405162461bcd60e51b815260206004820152602760248201527f436c6f736520696e74657276616c206d757374206265203e3d206c6f636b20696044820152661b9d195c9d985b60ca1b6064820152608401610779565b600755565b611c44611fac565b60005460ff1615611c675760405162461bcd60e51b815260040161077990612dc5565b60135460ff16611cd35760405162461bcd60e51b815260206004820152603160248201527f43616e206f6e6c792072756e2061667465722067656e657369735374617274526044820152701bdd5b99081a5cc81d1c9a59d9d95c9959607a1b6064820152608401610779565b601354610100900460ff1615611d1f5760405162461bcd60e51b815260206004820152601160248201527043616e206f6e6c792072756e206f6e636560781b6044820152606401610779565b600854600554600090815260016020526040902060020154611d40916122bf565b421115611d995760405162461bcd60e51b815260206004820152602160248201527f43616e206f6e6c79206c6f636b20726f756e642077697468696e2062756666656044820152603960f91b6064820152608401610779565b6000611da3611ff7565b9050611db06005546122cb565b600554611dbe906001612e1f565b6005819055611dcd9082612176565b506013805461ff001916610100179055565b60036020528160005260406000208181548110611dfb57600080fd5b90600052602060002001600091509150505481565b600a546001600160a01b03163314611e585760405162461bcd60e51b815260206004820152600b60248201526a61646d696e3a207775743f60a81b6044820152606401610779565b565b601654611930906001600160a01b031683836128a0565b333b15611eb75760405162461bcd60e51b815260206004820152601460248201527318dbdb9d1c9858dd081b9bdd08185b1b1bddd95960621b6044820152606401610779565b333214611e585760405162461bcd60e51b815260206004820152601a60248201527f70726f787920636f6e7472616374206e6f7420616c6c6f7765640000000000006044820152606401610779565b600061120e8284612e57565b600061120e8284612e37565b60005460ff16611f675760405162461bcd60e51b815260206004820152601460248201527314185d5cd8589b194e881b9bdd081c185d5cd95960621b6044820152606401610779565b6000805460ff191690557f5db9ee0a495bf2e6ff9c91a7834c1ba4fdd244a5e8aa4e537bd38aeae4b073aa335b6040516001600160a01b039091168152602001610ca2565b600b546001600160a01b03163314611e585760405162461bcd60e51b815260206004820152600e60248201526d6f70657261746f723a207775743f60901b6044820152606401610779565b60008061200f601254426122bf90919063ffffffff16565b90506000806000600d60009054906101000a90046001600160a01b03166001600160a01b031663feaf968c6040518163ffffffff1660e01b815260040160a06040518083038186803b15801561206457600080fd5b505afa158015612078573d6000803e3d6000fd5b505050506040513d601f19601f8201168201806040525081019061209c9190612ca7565b5093505092509250838111156121005760405162461bcd60e51b8152602060048201526024808201527f4f7261636c6520757064617465206578636565646564206d617820616c6c6f77604482015263616e636560e01b6064820152608401610779565b600e548369ffffffffffffffffffff16101561215e5760405162461bcd60e51b815260206004820152601e60248201527f4f7261636c652075706461746520726f756e644964203c206f6c6420696400006044820152606401610779565b5069ffffffffffffffffffff909116600e5591505090565b600082815260016020819052604090912042918101829055600654909161219c916122bf565b60028201556007546121af9042906122bf565b60038201558281556000600682015560048101829055604080514281526020810184905284917f9e37e19d9d58170ef7fa39e3af5503e907349528858211f19048af4dbe3d116991015b60405180910390a2505050565b6009546001600160a01b03163314611e585760405162461bcd60e51b815260206004820152600b60248201526a6f776e65723a207775743f60a81b6044820152606401610779565b6040516001600160a01b03808516602483015283166044820152606481018290526122b99085906323b872dd60e01b906084015b60408051601f198184030181529190526020810180516001600160e01b03166001600160e01b0319909316929092179091526128dc565b50505050565b600061120e8284612e1f565b6000818152600160208190526040909120015461231e5760405162461bcd60e51b8152602060048201526011602482015270149bdd5b99081b9bdd081cdd185c9d1959607a1b6044820152606401610779565b600081815260016020526040902060020154421080159061235c5750600854600082815260016020526040902060020154612358916122bf565b4211155b6123b85760405162461bcd60e51b815260206004820152602760248201527f43616e206f6e6c79206c6f636b206265747765656e206c6f636b54696d65202660448201526610313ab33332b960c91b6064820152608401610779565b807f2a10a104c1d678d140bb24df324113b019210a9ef40e150f0acf0dedde4bc68e42604051610fbb91815260200190565b60008281526001602052604090206002015461243e5760405162461bcd60e51b81526020600482015260136024820152721c9bdd5b9908191bd95cdb89dd08195e1a5cdd606a1b6044820152606401610779565b600082815260016020526040902060030154421080159061247c5750600854600083815260016020526040902060030154612478916122bf565b4211155b6124d65760405162461bcd60e51b815260206004820152602560248201527f43616e206f6e6c7920656e64206265747765656e20656e6454696d65202620626044820152643ab33332b960d91b6064820152608401610779565b61193082826129ae565b620f42406124fb601054600f546122bf90919063ffffffff16565b146125485760405162461bcd60e51b815260206004820152601e60248201527f726577617264526174652b74726561737572795261746520213d2031303000006044820152606401610779565b60008181526001602052604090206009015415801561257657506000818152600160205260409020600a0154155b6125b75760405162461bcd60e51b815260206004820152601260248201527114995dd85c991cc818d85b18dd5b185d195960721b6044820152606401610779565b60008181526001602052604081206004810154600582015491929182918291131561262e576000858152600460205260409020805460ff191690556007840154600f54600686015491945061260c9190611f06565b91506126276010548560060154611f0690919063ffffffff16565b9050612696565b836004015484600501541215612671576000858152600460205260409020805460ff191660011790556008840154600f54600686015491945061260c9190611f06565b5050506000828152600460205260408120805460ff1916600217905560068201549081905b600984018390556126aa82620f4240611f12565b600a8501556126c86126bf82620f4240611f12565b600c54906122bf565b600c55604080518481526020810184905290810182905285907f6dfdfcb09c8804d0058826cd2539f1acfbe3cb887c9be03d928035bce0f1a58d9060600160405180910390a25050505050565b60135460ff166127675760405162461bcd60e51b815260206004820152601f60248201527f67656e657369735374617274526f756e64206e6f7420747269676765726564006044820152606401610779565b60016000612776600285612e76565b815260200190815260200160002060030154600014156127ce5760405162461bcd60e51b8152602060048201526013602482015272149bdd5b99081b8b4c881b9bdd08195b991959606a1b6044820152606401610779565b600160006127dd600285612e76565b81526020019081526020016000206003015442101561283e5760405162461bcd60e51b815260206004820152601d60248201527f526f756e64206e2d3220656e6454696d65206e6f7420726561636865640000006044820152606401610779565b6119308282612176565b60005460ff161561286b5760405162461bcd60e51b815260040161077990612dc5565b6000805460ff191660011790557f62e78cea01bee320cd4e420270b5ea74000d11b0c9f74754ebdbfc544b05a258611f943390565b6040516001600160a01b03831660248201526044810182905261131c90849063a9059cbb60e01b90606401612282565b600061120e8284612e76565b6000612931826040518060400160405280602081526020017f5361666545524332303a206c6f772d6c6576656c2063616c6c206661696c6564815250856001600160a01b0316612a0e9092919063ffffffff16565b80519091501561131c578080602001905181019061294f9190612c2c565b61131c5760405162461bcd60e51b815260206004820152602a60248201527f5361666545524332303a204552433230206f7065726174696f6e20646964206e6044820152691bdd081cdd58d8d9595960b21b6064820152608401610779565b60008281526001602081815260409283902060058101859055600b8101805460ff19169093179092558251428152908101849052909184917fb6ff1fe915db84788cbbbc017f0d2bef9485fad9fd0bd8ce9340fde0d8410dd891016121f9565b6060612a1d8484600085612a25565b949350505050565b606082471015612a865760405162461bcd60e51b815260206004820152602660248201527f416464726573733a20696e73756666696369656e742062616c616e636520666f6044820152651c8818d85b1b60d21b6064820152608401610779565b843b612ad45760405162461bcd60e51b815260206004820152601d60248201527f416464726573733a2063616c6c20746f206e6f6e2d636f6e74726163740000006044820152606401610779565b600080866001600160a01b03168587604051612af09190612cf6565b60006040518083038185875af1925050503d8060008114612b2d576040519150601f19603f3d011682016040523d82523d6000602084013e612b32565b606091505b5091509150612b42828286612b4d565b979650505050505050565b60608315612b5c57508161120e565b825115612b6c5782518084602001fd5b8160405162461bcd60e51b81526004016107799190612d92565b80356001600160a01b03811681146108ac57600080fd5b805169ffffffffffffffffffff811681146108ac57600080fd5b600060208284031215612bc8578081fd5b61120e82612b86565b60008060408385031215612be3578081fd5b612bec83612b86565b946020939093013593505050565b600080600060608486031215612c0e578081fd5b612c1784612b86565b95602085013595506040909401359392505050565b600060208284031215612c3d578081fd5b8151801515811461120e578182fd5b600060208284031215612c5d578081fd5b5035919050565b600060208284031215612c75578081fd5b5051919050565b60008060408385031215612c8e578182fd5b82359150612c9e60208401612b86565b90509250929050565b600080600080600060a08688031215612cbe578081fd5b612cc786612b9d565b9450602086015193506040860151925060608601519150612cea60808701612b9d565b90509295509295909350565b60008251612d08818460208701612e8d565b9190910192915050565b604080825283519082018190526000906020906060840190828701845b82811015612d4b57815184529284019290840190600101612d2f565b50505092019290925292915050565b6060810160028510612d7c57634e487b7160e01b600052602160045260246000fd5b9381526020810192909252151560409091015290565b6000602082528251806020840152612db1816040850160208701612e8d565b601f01601f19169190910160400192915050565b60208082526010908201526f14185d5cd8589b194e881c185d5cd95960821b604082015260600190565b60208082526016908201527543616e6e6f74206265207a65726f206164647265737360501b604082015260600190565b60008219821115612e3257612e32612f0f565b500190565b600082612e5257634e487b7160e01b81526012600452602481fd5b500490565b6000816000190483118215151615612e7157612e71612f0f565b500290565b600082821015612e8857612e88612f0f565b500390565b60005b83811015612ea8578181015183820152602001612e90565b838111156122b95750506000910152565b600281046001821680612ecd57607f821691505b60208210811415612eee57634e487b7160e01b600052602260045260246000fd5b50919050565b6000600019821415612f0857612f08612f0f565b5060010190565b634e487b7160e01b600052601160045260246000fdfea264697066735822122009122454aa8cdc877512c5297956b6d3694a95999e8cb26513d3edb903c19a5a64736f6c63430008020033a26469706673582212203e7246ab49a27f53ebc88d0048dfd4e33a4d1a0207b54dcee169b77ee39c07f064736f6c63430008020033",
  "immutableReferences": {},
  "source": "// SPDX-License-Identifier: MIT\r\n\r\npragma solidity ^0.8.2;\r\nimport './PredMarket.sol';\r\nimport '@openzeppelin/contracts/token/ERC20/utils/SafeERC20.sol';\r\n\r\n\r\ncontract PredMarketFactory{\r\n    using SafeERC20 for IERC20;\r\n\r\n    address public owner;\r\n    address public admin;\r\n    address public operator;\r\n\r\n    //tokensPred + tokenStaked => market contract\r\n    mapping(address => mapping(address => address)) public markets;\r\n\r\n    event MarketCreated(\r\n        address indexed tokenPred, \r\n        address indexed tokenStaked,\r\n        address market\r\n        );\r\n\r\n    event SetOwner(address oldOwner, address newOwner);\r\n    event SetAdmin(address oldAdmin, address newAdmin);\r\n    event SetOperator(address oldOperator, address newOperator);\r\n\r\n\r\n\r\n    constructor(\r\n        address _ownerAddress,\r\n        address _adminAddress,\r\n        address _operatorAddress\r\n    ) {\r\n        owner = _ownerAddress;\r\n        admin = _adminAddress;\r\n        operator = _operatorAddress;\r\n        emit SetOwner(address(0), _ownerAddress);\r\n        emit SetAdmin(address(0), _adminAddress);\r\n        emit SetOperator(address(0), _operatorAddress);\r\n    }\r\n\r\n    function createMarket(\r\n        string memory _name,\r\n        address _tokenPred,\r\n        address _tokenStaked,\r\n        address _oracle,\r\n        address[] memory _ownerAdminOperator,\r\n        uint256 _lockInterval,\r\n        uint256 _closeInterval,\r\n        uint256 _buffer,\r\n        uint256 _minBetAmount,\r\n        uint256 _oracleUpdateAllowance\r\n    )\r\n    external\r\n    onlyAdminOrOperator\r\n    {\r\n        require(\r\n            markets[_tokenPred][_tokenStaked] == address(0), \r\n            \"Already deployed\"\r\n            );\r\n        \r\n        PredMarket pred = new PredMarket(\r\n            _name,\r\n            _tokenPred,\r\n            _tokenStaked,\r\n            _oracle,\r\n            _ownerAdminOperator,\r\n            _lockInterval,\r\n            _closeInterval,\r\n            _buffer,\r\n            _minBetAmount,\r\n            _oracleUpdateAllowance\r\n        );\r\n\r\n        markets[_tokenPred][_tokenStaked] = address(pred);\r\n\r\n        emit MarketCreated(_tokenPred, _tokenStaked, address(pred));\r\n\r\n    }\r\n\r\n    function _onlyOwner() internal view{\r\n        require(owner == msg.sender, \"Only owner function\");\r\n    }\r\n\r\n    function _onlyOwnerOrAdmin() internal view{\r\n        require(\r\n            owner == msg.sender ||\r\n            admin == msg.sender,\r\n            \"Only owner or admin function\"\r\n            );\r\n    }\r\n\r\n    function _onlyAdminOrOperator() internal view{\r\n        require(\r\n            admin == msg.sender ||\r\n            operator == msg.sender,\r\n            \"Only admin or operator function\"\r\n            );\r\n    }\r\n    \r\n    modifier onlyOwner{\r\n        _onlyOwner();\r\n        _;\r\n    }\r\n    \r\n    modifier onlyOwnerOrAdmin{\r\n        _onlyOwnerOrAdmin();\r\n        _;\r\n    }\r\n\r\n    modifier onlyAdminOrOperator{\r\n        _onlyAdminOrOperator();\r\n        _;\r\n    }\r\n\r\n    function changeOwner(address _owner) external onlyOwner{\r\n        require(_owner != address(0), \"Zero address\");\r\n        require(owner != _owner, \"Already owner\");\r\n        owner = _owner;\r\n        emit SetOwner(msg.sender, owner);\r\n    }\r\n\r\n    function changeAdmin(address _admin) external onlyOwner{\r\n        require(_admin != address(0), \"Zero address\");\r\n        require(admin != _admin, \"Already admin\");\r\n        address oldAdmin = admin;\r\n        admin = _admin;\r\n        emit SetAdmin(oldAdmin, admin);\r\n    }\r\n\r\n    function changeOperator(address _operator) external onlyOwnerOrAdmin{\r\n        require(_operator != address(0), 'Zero address');\r\n        require(operator != _operator, 'Already operator');\r\n        address oldOperator = operator;\r\n        operator = _operator;\r\n        emit SetOperator(oldOperator, _operator);\r\n    }\r\n\r\n    //If someone accidently sends any token or native currency to this contract\r\n    function withdrawAllTokens(address token) external onlyOwner{\r\n        uint256 bal = IERC20(token).balanceOf(address(this));\r\n        withdrawToken(token, bal);\r\n    }\r\n\r\n    \r\n    function withdrawToken(address token, uint256 amount) public onlyOwner{\r\n        uint256 bal = IERC20(token).balanceOf(address(this));\r\n        require(bal >= amount, \"balanace of token in contract too low\");\r\n        IERC20(token).safeTransfer(owner, amount);\r\n    }\r\n\r\n    function withdrawAllNative() external onlyOwner{\r\n        uint256 bal = address(this).balance;\r\n        withdrawNative(bal);\r\n    } \r\n\r\n    function withdrawNative(uint256 amount) public onlyOwner{\r\n        uint256 bal = address(this).balance;\r\n        require(bal >= amount, \"balanace of native token in contract too low\");\r\n        (bool sent, ) = owner.call{value: amount}(\"\");\r\n        require(sent, \"Failure in transfer\");\r\n    }\r\n}",
  "sourcePath": "C:\\Users\\shiva\\OneDrive\\Desktop\\PredMarkets\\contracts\\PredMarketFactory.sol",
  "compiler": {
    "name": "solc",
    "version": "0.8.2+commit.661d1103.Emscripten.clang"
  },
  "schemaVersion": "3.4.4",
  "updatedAt": "2022-02-01T14:11:45.770Z",
  "devdoc": {
    "kind": "dev",
    "methods": {},
    "version": 1
  },
  "userdoc": {
    "kind": "user",
    "methods": {},
    "version": 1
  }
}